:100000000C9462000C948A000C948A000C948A0070
:100010000C948A000C948A000C948A000C948A0038
:100020000C948A000C948A000C948A000C948A0028
:100030000C948A000C948A000C948A000C948A0018
:100040000C940F040C948A000C948A000C948A007F
:100050000C948A000C948A000C948A000C948A00F8
:100060000C948A000C948A000000000024002700F1
:100070002A0000000000250028002B0000000000DE
:1000800023002600290004040404040404040202DA
:100090000202020203030303030301020408102007
:1000A0004080010204081020010204081020000012
:1000B0000008000201000003040700000000000027
:1000C00000000C0611241FBECFEFD8E0DEBFCDBF6D
:1000D00021E0A8E5B1E001C01D92A538B207E1F723
:1000E00011E0A0E0B1E0EAE1F5E102C005900D9277
:1000F000A835B107D9F710E0C2E6D0E004C02197D7
:10010000FE010E949308C136D107C9F70E94590425
:100110000C948B0A0C940000833081F028F4813019
:1001200099F08230A9F008958730A9F08830C9F09D
:100130008430B1F4809180008F7D03C08091800075
:100140008F7780938000089584B58F7784BD08955C
:1001500084B58F7DFBCF8091B0008F778093B00006
:1001600008958091B0008F7DF9CFCF93DF93282F32
:1001700030E0F901E255FF4F8491F901E656FF4F57
:10018000D491F901EA57FF4FC491CC23A1F081111A
:100190000E948C00EC2FF0E0EE0FFF1FE458FF4FA1
:1001A000A591B491EC91ED2381E090E009F480E019
:1001B000DF91CF91089580E090E0FACF1F93CF9325
:1001C000DF93282F30E0F901E255FF4F8491F901C8
:1001D000E656FF4FD491F901EA57FF4FC491CC2363
:1001E000A9F0162F81110E948C00EC2FF0E0EE0F89
:1001F000FF1FEE58FF4FA591B4918FB7F894EC9183
:10020000111108C0D095DE23DC938FBFDF91CF9111
:100210001F910895DE2BF8CFCF93DF9390E0FC0180
:10022000E656FF4F24918A579F4FFC018491882303
:10023000D1F090E0880F991FFC01E859FF4FA5917C
:10024000B491FC01EE58FF4FC591D49161110EC0DD
:100250009FB7F8948C91E22FE0958E238C932881A0
:10026000E223E8839FBFDF91CF9108958FB7F89481
:10027000EC91E22BEC938FBFF6CF8E50806480938D
:100280007C0080917A00806480937A0080917A006B
:1002900086FDFCCF809178009091790008953FB75A
:1002A000F8948091650190916601A0916701B091E9
:1002B000680126B5A89B05C02F3F19F00196A11D26
:1002C000B11D3FBFBA2FA92F982F8827BC01CD01A0
:1002D000620F711D811D911D42E0660F771F881FFF
:1002E000991F4A95D1F708958F929F92AF92BF922E
:1002F000CF92DF92EF92FF924B015C010E944F017F
:100300006B017C010E944F016C197D098E099F09C8
:10031000683E734081059105A8F321E0821A910897
:10032000A108B10888EEC80E83E0D81EE11CF11CBC
:1003300081149104A104B10429F7FF90EF90DF909C
:10034000CF90BF90AF909F908F900895AF92BF9243
:10035000CF92DF92EF92FF920F931F93CF93DF9391
:100360006C017B018B01040F151FEB015E01AE18C0
:10037000BF08C017D10759F06991D601ED91FC91E2
:100380000190F081E02DC6010995892B79F7C5010F
:10039000DF91CF911F910F91FF90EF90DF90CF9061
:1003A000BF90AF900895089590E080E008958F92F7
:1003B0009F92AF92BF920F931F93CF93DF93CDB7CE
:1003C000DEB7A1970FB6F894DEBF0FBECDBF19A25E
:1003D000423008F44AE08E010F5D1F4F842E912CAD
:1003E000B12CA12CA50194010E947108E62FB9013E
:1003F000CA01EA3044F5E05DD801EE938D01232B6C
:10040000242B252B79F790E080E0109769F0FD010F
:1004100001900020E9F73197AF014A1B5B0BBD014A
:1004200089E691E00E94A601A1960FB6F894DEBF7E
:100430000FBECDBFDF91CF911F910F91BF90AF90B5
:100440009F908F900895E95CD7CFFC0180819181C6
:10045000009711F00C9435090895EF92FF920F93D5
:100460001F93CF93DF93EC017B01198218821B82CB
:100470001A821D821C82FB0101900020E9F731974E
:100480008F01061B170BB8016F5F7F4F90E080E074
:100490000E94BE090097B9F0998388831B830A8361
:1004A0002C813D81232B11F4FC0110821D830C83D0
:1004B000B70188819981DF91CF911F910F91FF90B2
:1004C000EF900C94840A88819981009711F00E9422
:1004D0003509198218821D821C821B821A82DF91C3
:1004E000CF911F910F91FF90EF900895CF93DF93DD
:1004F000EC0160E08E810E94DE0061E08E810E944E
:10050000DE0060E08E810E94DE008BE891E00197C2
:10051000F1F7DF91CF910895CF92DF92EF92FF92A2
:100520000F931F93CF93DF936C017C0187E0E80E5C
:10053000F11CD0E0C0E0062F10E0B8010C2E02C084
:10054000759567950A94E2F76170F70181917F01D3
:100550000E94DE002196C430D10579F7C601DF91F3
:10056000CF911F910F91FF90EF90DF90CF900C945F
:100570007602CF92DF92EF92FF920F931F93CF9369
:10058000DF93EC01F62E642F8C810E94DE008D81BA
:100590008F3F19F060E00E94DE000F2D10E08F8584
:1005A00084FF25C06E0187E0C80ED11CF12CE12C20
:1005B000B8010E2C02C0759567950A94E2F7617038
:1005C000F60181916F010E94DE00FFEFEF1AFF0A32
:1005D00088E0E816F10461F7CE01DF91CF911F9119
:1005E0000F91FF90EF90DF90CF900C947602B801BE
:1005F00084E0759567958A95E1F7CE010E948C029B
:100600006F2DCE01DF91CF911F910F91FF90EF9051
:10061000DF90CF900C948C0240E0682F89E691E047
:100620000C94B902CF93DF93823029F49091780132
:1006300098609093780180937C0110927D0180E412
:1006400080937E0180E180937F0180E5809380012B
:1006500061E080916D010E940C0180916E018F3FDD
:1006600019F061E00E940C0161E080916F010E942D
:100670000C01C9E6D1E09E012956314080917801F4
:1006800084FD0BC084E090E021962817390744F4DC
:1006900061E08E810E940C01EECF88E090E0F4CF03
:1006A0008BE39DE00197F1F760E080916D010E947E
:1006B000DE0060E080916F010E94DE0080916E019B
:1006C0008F3F19F060E00E94DE008091780184FD88
:1006D00039C063E089E691E00E948C02CBE4D6E465
:1006E000CE010197F1F763E089E691E00E948C0268
:1006F0002197F1F763E089E691E00E948C0283E59F
:1007000092E00197F1F762E089E691E00E948C02A5
:100710008091780180620E940C0384E080937901CB
:100720008CE00E940C0381E00E940C038BE39FE1AC
:100730000197F1F782E080937A0186E0DF91CF9113
:100740000C940C0380620E940C038BE496E40197E6
:10075000F1F78091780180620E940C0383E592E0BA
:100760000197F1F78091780180620E940C03D0CF4D
:1007700041E00E94B90281E090E00895CF92DF92BB
:10078000EF92FF92CF93DF93EC016B0181E00E9427
:100790000C038BE39FE10197F1F7E1E080917C018D
:1007A0008111E0E0E195F0E0E759FE4F848980682F
:1007B0000E940C034C815D816881798189E691E01A
:1007C0000E94A601E0917C01E23038F5E150F0E0B2
:1007D000E759FE4F848980680E940C030D2C000CA1
:1007E000EE08FF084AE0C701B601F7FE0EC041E07F
:1007F0006DE289E691E00E94B90266277727CB0176
:100800006C197D098E099F094AE0DF91CF91FF9015
:10081000EF90DF90CF900C94D701E1E0D8CF1F92FA
:100820000F920FB60F9211242F933F938F939F93A4
:10083000AF93BF938091610190916201A091630198
:10084000B09164013091600123E0230F2D3758F5FA
:100850000196A11DB11D20936001809361019093C9
:100860006201A0936301B09364018091650190914E
:100870006601A0916701B09168010196A11DB11DAB
:100880008093650190936601A0936701B09368011E
:10089000BF91AF919F918F913F912F910F900FBE7C
:1008A0000F901F90189526E8230F0296A11DB11DE9
:1008B000D2CFCF93DF9300D000D000D0CDB7DEB73A
:1008C000789484B5826084BD84B5816084BD85B52B
:1008D000826085BD85B5816085BD80916E00816037
:1008E00080936E00109281008091810082608093DD
:1008F00081008091810081608093810080918000DF
:100900008160809380008091B10084608093B10009
:100910008091B00081608093B00080917A00846003
:1009200080937A0080917A00826080937A0080912F
:100930007A00816080937A0080917A008068809349
:100940007A001092C10082E00E94120360E08EE003
:100950000E940C0160E08FE00E940C0160E080E1E9
:100960000E940C0160E081E10E940C0160E082E1E4
:100970000E940C0161E08BE00E940C0161E08CE0C0
:100980000E940C0100915E0110915F01101611068A
:100990000CF435C161E08BE00E94DE0060E08CE089
:1009A0000E94DE000F5F1F4F10935F0100935E01F6
:1009B00080915C0190915D01019690935D0180931F
:1009C0005C0168EC70E080E090E00E9474018EE0D1
:1009D0000E943D014C018FE00E943D017C0180E1BD
:1009E0000E943D013C0181E10E943D015C0182E1E8
:1009F0000E943D016C0188E00E94B500892B39F00E
:100A00008BE00E94B50022242394892B09F4212C29
:100A100089E00E94B500892B39F08BE00E94B50077
:100A200033243394892B09F4312C8AE00E94B500D9
:100A3000892B39F08BE00E94B50044244394892B24
:100A400009F4412C88E00E94B500892B39F08CE034
:100A50000E94B50055245394892B09F4512C89E048
:100A60000E94B500892B31F08CE00E94B50001E0B6
:100A7000892B09F400E08AE00E94B500892B31F04F
:100A80008CE00E94B50011E0892B09F410E0B4015C
:100A9000990C880B990B0E942C0620E030E040EA6C
:100AA00050E40E94670620E030E040E05FE30E94EF
:100AB0005C0720E030E048EC52E40E94670620E04A
:100AC00030E048E452E40E945D0720E030E04AE76D
:100AD00054E40E94C90720E030E040E85FE30E9450
:100AE0005C070E943B0870935B0160935A01605E53
:100AF0007F4F7093590160935801222089F062E181
:100B000071E0CE0101960E942D02B50164587D4F1F
:100B1000CE0101960E94BE03CE0101960E942502DD
:100B2000332089F063E271E0CE0101960E942D022C
:100B3000B601635E7D4FCE0101960E94BE03CE01D9
:100B400001960E942502442099F0C0905A01D0904D
:100B50005B016DE271E0CE0101960E942D02B601AB
:100B6000CE0101960E94BE03CE0101960E9425028D
:100B7000552079F065E371E0CE0101960E942D02C7
:100B8000B301CE0101960E94BE03CE0101960E94E0
:100B90002502002389F062E471E0CE0101960E94F3
:100BA0002D02B7016E587F4FCE0101960E94BE0301
:100BB000CE0101960E942502112399F0009158015F
:100BC0001091590160E571E0CE0101960E942D025D
:100BD000B801CE0101960E94BE03CE0101960E948B
:100BE000250268EE73E080E090E00E94740180E0EE
:100BF00090E0892B09F4C6CE0E940000C3CE60E0CD
:100C00008BE00E94DE0061E08CE00E94DE0010922A
:100C10005F0110925E01CCCEE9E6F1E01382128210
:100C20008AE091E09183808382E084838FEF8583E3
:100C300083E0868384E0878385E0808786E0818700
:100C400087E082871386148615861686178681E0CC
:100C50000C941203E89409C097FB3EF4909580959C
:100C6000709561957F4F8F4F9F4F9923A9F0F92F72
:100C700096E9BB279395F695879577956795B795F0
:100C8000F111F8CFFAF4BB0F11F460FF1BC06F5FD6
:100C90007F4F8F4F9F4F16C0882311F096E911C0E8
:100CA000772321F09EE8872F762F05C0662371F009
:100CB00096E8862F70E060E02AF09A95660F771F1D
:100CC000881FDAF7880F9695879597F908950E94FF
:100CD0007A060C94EB060E94DD0638F00E94E406CA
:100CE00020F0952311F00C94D4060C94DA0611240C
:100CF0000C941F070E94FC0670F3959FC1F3950F9B
:100D000050E0551F629FF001729FBB27F00DB11D8F
:100D1000639FAA27F00DB11DAA1F649F6627B00D1F
:100D2000A11D661F829F2227B00DA11D621F739F08
:100D3000B00DA11D621F839FA00D611D221F749F16
:100D40003327A00D611D231F849F600D211D822F5D
:100D5000762F6A2F11249F5750409AF0F1F0882384
:100D60004AF0EE0FFF1FBB1F661F771F881F9150B1
:100D70005040A9F79E3F510580F00C94D4060C9486
:100D80001F075F3FE4F3983ED4F386957795679508
:100D9000B795F795E7959F5FC1F7FE2B880F911DDB
:100DA0009695879597F9089597F99F6780E870E081
:100DB00060E008959FEF80EC089500240A941616D1
:100DC000170618060906089500240A941216130639
:100DD000140605060895092E0394000C11F48823C7
:100DE00052F0BB0F40F4BF2B11F460FF04C06F5FE3
:100DF0007F4F8F4F9F4F089557FD9058440F551FB9
:100E000059F05F3F71F04795880F97FB991F61F08C
:100E10009F3F79F087950895121613061406551F03
:100E2000F2CF4695F1DF08C0161617061806991F6F
:100E3000F1CF86957105610508940895E894BB2764
:100E400066277727CB0197F908952F923F924F920B
:100E50005F926F927F928F929F92AF92BF92CF924A
:100E6000DF92EF92FF920F931F93CF93DF93CDB753
:100E7000DEB7CA1BDB0B0FB6F894DEBF0FBECDBFCB
:100E800009942A88398848885F846E847D848C849C
:100E90009B84AA84B984C884DF80EE80FD800C81A5
:100EA0001B81AA81B981CE0FD11D0FB6F894DEBF88
:100EB0000FBECDBFED0108955058BB27AA270E9451
:100EC00074070C94EB060E94DD0638F00E94E406DD
:100ED00020F039F49F3F19F426F40C94DA060EF44E
:100EE000E095E7FB0C94D406E92F0E94FC0658F32A
:100EF000BA17620773078407950720F079F4A6F5FF
:100F00000C941E070EF4E0950B2EBA2FA02D0B01AA
:100F1000B90190010C01CA01A0011124FF27591B3E
:100F200099F0593F50F4503E68F11A16F040A22F44
:100F3000232F342F4427585FF3CF469537952795B5
:100F4000A795F0405395C9F77EF41F16BA0B620BB4
:100F5000730B840BBAF09150A1F0FF0FBB1F661FFB
:100F6000771F881FC2F70EC0BA0F621F731F841F3E
:100F700048F4879577956795B795F7959E3F08F064
:100F8000B0CF9395880F08F09927EE0F9795879526
:100F900008950E94DD070C94EB060E94E40658F0C9
:100FA0000E94DD0640F029F45F3F29F00C94D4063E
:100FB00051110C941F070C94DA060E94FC0668F38A
:100FC0009923B1F3552391F3951B550BBB27AA2702
:100FD00062177307840738F09F5F5F4F220F331F3C
:100FE000441FAA1FA9F335D00E2E3AF0E0E832D004
:100FF00091505040E695001CCAF72BD0FE2F29D007
:10100000660F771F881FBB1F261737074807AB07D8
:10101000B0E809F0BB0B802DBF01FF2793585F4F4D
:101020003AF09E3F510578F00C94D4060C941F07BB
:101030005F3FE4F3983ED4F3869577956795B7952F
:10104000F7959F5FC9F7880F911D9695879597F93A
:101050000895E1E0660F771F881FBB1F62177307B3
:101060008407BA0720F0621B730B840BBA0BEE1FC8
:1010700088F7E09508950E9442086894B1110C9495
:101080001F0708950E94040788F09F5798F0B92F12
:101090009927B751B0F0E1F0660F771F881F991FAD
:1010A0001AF0BA95C9F714C0B13091F00E941E072A
:1010B000B1E008950C941E07672F782F8827B85F3A
:1010C00039F0B93FCCF3869577956795B395D9F705
:1010D0003EF490958095709561957F4F8F4F9F4F0F
:1010E0000895A1E21A2EAA1BBB1BFD010DC0AA1F69
:1010F000BB1FEE1FFF1FA217B307E407F50720F081
:10110000A21BB30BE40BF50B661F771F881F991FFB
:101110001A9469F760957095809590959B01AC0144
:10112000BD01CF010895EE0FFF1F0590F491E02D52
:1011300009940F931F93CF93DF938230910510F49E
:1011400082E090E0E0918301F091840130E020E0C2
:10115000B0E0A0E0309799F42115310509F44AC0B8
:10116000281B390B24303105D8F58A819B81611504
:10117000710589F1FB0193838283FE0111C04081D7
:1011800051810281138148175907E0F04817590728
:1011900099F4109761F012960C93129713961C9382
:1011A0003296CF01DF91CF911F910F910895009357
:1011B000830110938401F4CF2115310551F04217BA
:1011C000530738F0A901DB019A01BD01DF01F801E5
:1011D000C1CFEF01F9CF9093840180938301CDCFEC
:1011E000FE01E20FF31F819391932250310939835D
:1011F0002883D7CF2091810130918201232B41F4A4
:1012000020910201309103013093820120938101EA
:1012100020910001309101012115310541F42DB7D4
:101220003EB74091040150910501241B350BE0911C
:101230008101F0918201E217F307A0F42E1B3F0B0E
:101240002817390778F0AC014E5F5F4F2417350738
:1012500048F04E0F5F1F50938201409381018193AC
:1012600091939FCFF0E0E0E09CCFCF93DF93009786
:10127000E9F0FC01329713821282A0918301B091B0
:101280008401ED0130E020E01097A1F4208131814C
:10129000820F931F20918101309182012817390715
:1012A00009F061C0F0938201E0938101DF91CF9159
:1012B0000895EA01CE17DF07E8F54A815B819E01B8
:1012C00041155105B1F7E901FB83EA834991599131
:1012D000C40FD51FEC17FD0761F480819181029640
:1012E000840F951FE90199838883828193819B8371
:1012F0008A83F0E0E0E012968D919C91139700971D
:10130000B9F52D913C911197CD010296820F931F53
:1013100020918101309182012817390739F63097E1
:1013200051F51092840110928301B0938201A09331
:101330008101BCCFD383C28340815181840F951F2B
:10134000C817D90761F44E5F5F4F88819981480FB4
:10135000591F518340838A819B8193838283211506
:10136000310509F0B0CFF0938401E09383019ECF63
:10137000FD01DC01C0CF13821282D7CFB0E0A0E024
:10138000E4ECF9E00C9427078C01009751F4CB01B1
:101390000E9499088C01C801CDB7DEB7E0E10C943A
:1013A0004307FC01E60FF71F9C0122503109E217A9
:1013B000F30708F49DC0D901CD91DC911197C617B0
:1013C000D70798F0C530D10530F3CE0104978617C2
:1013D000970708F3C61BD70B2297C193D1936D9340
:1013E0007C93CF010E943509D6CF5B01AC1ABD0AB0
:1013F0004C018C0E9D1EA0918301B0918401512C53
:10140000412CF12CE12C109731F5809181019091C4
:1014100082018815990509F05CC04616570608F048
:1014200058C08091000190910101009741F48DB75F
:101430009EB74091040150910501841B950BE8175C
:10144000F90708F055C0F0938201E0938101F9019A
:1014500071836083A0CF8D919C91119712966C90AF
:10146000129713967C901397A815B90559F56C013E
:1014700042E0C40ED11CCA14DB0420F1AC014A19AD
:101480005B09DA011296159780F0628273825183AC
:101490004083D9016D937C93E114F10471F0D7017D
:1014A0001396FC93EE93129776CF22968C0F9D1F86
:1014B000F90191838083F301EFCFF0938401E093EE
:1014C000830169CF4816590608F42C017D01D30128
:1014D0009ACFCB010E9499087C01009749F0AE0198
:1014E000B8010E947B0AC8010E943509870153CFC9
:1014F00010E000E050CFFB01DC0102C001900D9232
:1015000041505040D8F70895FB01DC0101900D9245
:0A1510000020E1F70895F894FFCFE2
:10151A0000008501800000000000B803A601D40184
:10152A00D30157696E64205370656564206B6D2F13
:10153A00683A0048756D69646974793A0054656D52
:10154A007020433A005761746572204C6576656C69
:10155A003A004169722050726573737572653A0078
:08156A0054656D7020463A0043
:00000001FF
